{
  "_format": "hh3-artifact-1",
  "contractName": "LoanManagerV2",
  "sourceName": "contracts/LoanManagerV2.sol",
  "abi": [
    {
      "inputs": [
        {
          "internalType": "address",
          "name": "stable_",
          "type": "address"
        },
        {
          "internalType": "address",
          "name": "loanNFT_",
          "type": "address"
        },
        {
          "internalType": "address",
          "name": "admin_",
          "type": "address"
        }
      ],
      "stateMutability": "nonpayable",
      "type": "constructor"
    },
    {
      "inputs": [],
      "name": "AccessControlBadConfirmation",
      "type": "error"
    },
    {
      "inputs": [
        {
          "internalType": "address",
          "name": "account",
          "type": "address"
        },
        {
          "internalType": "bytes32",
          "name": "neededRole",
          "type": "bytes32"
        }
      ],
      "name": "AccessControlUnauthorizedAccount",
      "type": "error"
    },
    {
      "inputs": [],
      "name": "EnforcedPause",
      "type": "error"
    },
    {
      "inputs": [],
      "name": "ExpectedPause",
      "type": "error"
    },
    {
      "anonymous": false,
      "inputs": [
        {
          "indexed": true,
          "internalType": "uint256",
          "name": "tokenId",
          "type": "uint256"
        },
        {
          "indexed": true,
          "internalType": "address",
          "name": "borrower",
          "type": "address"
        },
        {
          "indexed": false,
          "internalType": "uint256",
          "name": "principal",
          "type": "uint256"
        },
        {
          "indexed": false,
          "internalType": "uint16",
          "name": "aprBps",
          "type": "uint16"
        },
        {
          "indexed": false,
          "internalType": "uint16",
          "name": "durationMonths",
          "type": "uint16"
        },
        {
          "indexed": false,
          "internalType": "string",
          "name": "metaURI",
          "type": "string"
        }
      ],
      "name": "LoanMinted",
      "type": "event"
    },
    {
      "anonymous": false,
      "inputs": [
        {
          "indexed": false,
          "internalType": "address",
          "name": "account",
          "type": "address"
        }
      ],
      "name": "Paused",
      "type": "event"
    },
    {
      "anonymous": false,
      "inputs": [
        {
          "indexed": true,
          "internalType": "bytes32",
          "name": "role",
          "type": "bytes32"
        },
        {
          "indexed": true,
          "internalType": "bytes32",
          "name": "previousAdminRole",
          "type": "bytes32"
        },
        {
          "indexed": true,
          "internalType": "bytes32",
          "name": "newAdminRole",
          "type": "bytes32"
        }
      ],
      "name": "RoleAdminChanged",
      "type": "event"
    },
    {
      "anonymous": false,
      "inputs": [
        {
          "indexed": true,
          "internalType": "bytes32",
          "name": "role",
          "type": "bytes32"
        },
        {
          "indexed": true,
          "internalType": "address",
          "name": "account",
          "type": "address"
        },
        {
          "indexed": true,
          "internalType": "address",
          "name": "sender",
          "type": "address"
        }
      ],
      "name": "RoleGranted",
      "type": "event"
    },
    {
      "anonymous": false,
      "inputs": [
        {
          "indexed": true,
          "internalType": "bytes32",
          "name": "role",
          "type": "bytes32"
        },
        {
          "indexed": true,
          "internalType": "address",
          "name": "account",
          "type": "address"
        },
        {
          "indexed": true,
          "internalType": "address",
          "name": "sender",
          "type": "address"
        }
      ],
      "name": "RoleRevoked",
      "type": "event"
    },
    {
      "anonymous": false,
      "inputs": [
        {
          "indexed": false,
          "internalType": "address",
          "name": "account",
          "type": "address"
        }
      ],
      "name": "Unpaused",
      "type": "event"
    },
    {
      "inputs": [],
      "name": "DEFAULT_ADMIN_ROLE",
      "outputs": [
        {
          "internalType": "bytes32",
          "name": "",
          "type": "bytes32"
        }
      ],
      "stateMutability": "view",
      "type": "function"
    },
    {
      "inputs": [],
      "name": "OFFICER_ROLE",
      "outputs": [
        {
          "internalType": "bytes32",
          "name": "",
          "type": "bytes32"
        }
      ],
      "stateMutability": "view",
      "type": "function"
    },
    {
      "inputs": [],
      "name": "PAUSER_ROLE",
      "outputs": [
        {
          "internalType": "bytes32",
          "name": "",
          "type": "bytes32"
        }
      ],
      "stateMutability": "view",
      "type": "function"
    },
    {
      "inputs": [
        {
          "internalType": "uint256",
          "name": "tokenId",
          "type": "uint256"
        }
      ],
      "name": "getLoan",
      "outputs": [
        {
          "components": [
            {
              "internalType": "address",
              "name": "borrower",
              "type": "address"
            },
            {
              "internalType": "uint256",
              "name": "principal",
              "type": "uint256"
            },
            {
              "internalType": "uint16",
              "name": "aprBps",
              "type": "uint16"
            },
            {
              "internalType": "uint16",
              "name": "durationMonths",
              "type": "uint16"
            },
            {
              "internalType": "string",
              "name": "metaURI",
              "type": "string"
            },
            {
              "internalType": "uint256",
              "name": "tokenId",
              "type": "uint256"
            },
            {
              "internalType": "bool",
              "name": "active",
              "type": "bool"
            },
            {
              "internalType": "uint64",
              "name": "createdAt",
              "type": "uint64"
            }
          ],
          "internalType": "struct LoanManagerV2.Loan",
          "name": "",
          "type": "tuple"
        }
      ],
      "stateMutability": "view",
      "type": "function"
    },
    {
      "inputs": [
        {
          "internalType": "bytes32",
          "name": "role",
          "type": "bytes32"
        }
      ],
      "name": "getRoleAdmin",
      "outputs": [
        {
          "internalType": "bytes32",
          "name": "",
          "type": "bytes32"
        }
      ],
      "stateMutability": "view",
      "type": "function"
    },
    {
      "inputs": [
        {
          "internalType": "bytes32",
          "name": "role",
          "type": "bytes32"
        },
        {
          "internalType": "address",
          "name": "account",
          "type": "address"
        }
      ],
      "name": "grantRole",
      "outputs": [],
      "stateMutability": "nonpayable",
      "type": "function"
    },
    {
      "inputs": [
        {
          "internalType": "bytes32",
          "name": "role",
          "type": "bytes32"
        },
        {
          "internalType": "address",
          "name": "account",
          "type": "address"
        }
      ],
      "name": "hasRole",
      "outputs": [
        {
          "internalType": "bool",
          "name": "",
          "type": "bool"
        }
      ],
      "stateMutability": "view",
      "type": "function"
    },
    {
      "inputs": [],
      "name": "loanNFT",
      "outputs": [
        {
          "internalType": "contract ILoanNFT",
          "name": "",
          "type": "address"
        }
      ],
      "stateMutability": "view",
      "type": "function"
    },
    {
      "inputs": [
        {
          "internalType": "uint256",
          "name": "",
          "type": "uint256"
        }
      ],
      "name": "loans",
      "outputs": [
        {
          "internalType": "address",
          "name": "borrower",
          "type": "address"
        },
        {
          "internalType": "uint256",
          "name": "principal",
          "type": "uint256"
        },
        {
          "internalType": "uint16",
          "name": "aprBps",
          "type": "uint16"
        },
        {
          "internalType": "uint16",
          "name": "durationMonths",
          "type": "uint16"
        },
        {
          "internalType": "string",
          "name": "metaURI",
          "type": "string"
        },
        {
          "internalType": "uint256",
          "name": "tokenId",
          "type": "uint256"
        },
        {
          "internalType": "bool",
          "name": "active",
          "type": "bool"
        },
        {
          "internalType": "uint64",
          "name": "createdAt",
          "type": "uint64"
        }
      ],
      "stateMutability": "view",
      "type": "function"
    },
    {
      "inputs": [
        {
          "internalType": "address",
          "name": "borrower",
          "type": "address"
        },
        {
          "internalType": "uint256",
          "name": "principal",
          "type": "uint256"
        },
        {
          "internalType": "uint16",
          "name": "aprBps",
          "type": "uint16"
        },
        {
          "internalType": "uint16",
          "name": "durationMonths",
          "type": "uint16"
        },
        {
          "internalType": "string",
          "name": "metaURI",
          "type": "string"
        }
      ],
      "name": "mintLoan",
      "outputs": [
        {
          "internalType": "uint256",
          "name": "tokenId",
          "type": "uint256"
        }
      ],
      "stateMutability": "nonpayable",
      "type": "function"
    },
    {
      "inputs": [],
      "name": "nextLoanId",
      "outputs": [
        {
          "internalType": "uint256",
          "name": "",
          "type": "uint256"
        }
      ],
      "stateMutability": "view",
      "type": "function"
    },
    {
      "inputs": [],
      "name": "pause",
      "outputs": [],
      "stateMutability": "nonpayable",
      "type": "function"
    },
    {
      "inputs": [],
      "name": "paused",
      "outputs": [
        {
          "internalType": "bool",
          "name": "",
          "type": "bool"
        }
      ],
      "stateMutability": "view",
      "type": "function"
    },
    {
      "inputs": [
        {
          "internalType": "bytes32",
          "name": "role",
          "type": "bytes32"
        },
        {
          "internalType": "address",
          "name": "callerConfirmation",
          "type": "address"
        }
      ],
      "name": "renounceRole",
      "outputs": [],
      "stateMutability": "nonpayable",
      "type": "function"
    },
    {
      "inputs": [
        {
          "internalType": "bytes32",
          "name": "role",
          "type": "bytes32"
        },
        {
          "internalType": "address",
          "name": "account",
          "type": "address"
        }
      ],
      "name": "revokeRole",
      "outputs": [],
      "stateMutability": "nonpayable",
      "type": "function"
    },
    {
      "inputs": [],
      "name": "stable",
      "outputs": [
        {
          "internalType": "contract IERC20",
          "name": "",
          "type": "address"
        }
      ],
      "stateMutability": "view",
      "type": "function"
    },
    {
      "inputs": [
        {
          "internalType": "bytes4",
          "name": "interfaceId",
          "type": "bytes4"
        }
      ],
      "name": "supportsInterface",
      "outputs": [
        {
          "internalType": "bool",
          "name": "",
          "type": "bool"
        }
      ],
      "stateMutability": "view",
      "type": "function"
    },
    {
      "inputs": [],
      "name": "unpause",
      "outputs": [],
      "stateMutability": "nonpayable",
      "type": "function"
    }
  ],
  "bytecode": "0x60c060405234801562000010575f80fd5b50604051620011fc380380620011fc83398101604081905262000033916200017e565b6001600160a01b03808416608052821660a052620000525f82620000b6565b506200007f7fbbecb2568601cb27e6ced525237c463da94c4fb7a9b98ac79fd30fd56d8e1b5382620000b6565b50620000ac7f65d7a28e3265b37a6474929f336521b332c1681b933f6cb9f3376673440d862a82620000b6565b50505050620001c5565b5f828152602081815260408083206001600160a01b038516845290915281205460ff1662000159575f838152602081815260408083206001600160a01b03861684529091529020805460ff19166001179055620001103390565b6001600160a01b0316826001600160a01b0316847f2f8788117e7eff1d82e926ec794901d17c78024a50270940304540a733656f0d60405160405180910390a45060016200015c565b505f5b92915050565b80516001600160a01b038116811462000179575f80fd5b919050565b5f805f6060848603121562000191575f80fd5b6200019c8462000162565b9250620001ac6020850162000162565b9150620001bc6040850162000162565b90509250925092565b60805160a051611007620001f55f395f81816101d9015281816103a501526107bc01525f61014201526110075ff3fe608060405234801561000f575f80fd5b5060043610610111575f3560e01c80635c975abb1161009e57806391d148541161006e57806391d1485414610278578063a217fddf1461028b578063d547741f14610292578063e1ec3c68146102a5578063e63ab1e9146102cc575f80fd5b80635c975abb146102365780637264953b146102415780638456cb591461026857806387c5145914610270575f80fd5b80632ff86d40116100e45780632ff86d40146101c157806334a41177146101d457806336568abe146101fb5780633f4ba83a1461020e578063504006ca14610216575f80fd5b806301ffc9a71461011557806322be3de11461013d578063248a9ca31461017c5780632f2ff15d146101ac575b5f80fd5b610128610123366004610b8f565b6102f3565b60405190151581526020015b60405180910390f35b6101647f000000000000000000000000000000000000000000000000000000000000000081565b6040516001600160a01b039091168152602001610134565b61019e61018a366004610bbd565b5f9081526020819052604090206001015490565b604051908152602001610134565b6101bf6101ba366004610bef565b610329565b005b61019e6101cf366004610c2a565b610353565b6101647f000000000000000000000000000000000000000000000000000000000000000081565b6101bf610209366004610bef565b6105bf565b6101bf6105f7565b610229610224366004610bbd565b61062c565b6040516101349190610d12565b60015460ff16610128565b61019e7fbbecb2568601cb27e6ced525237c463da94c4fb7a9b98ac79fd30fd56d8e1b5381565b6101bf610787565b61019e6107b9565b610128610286366004610bef565b61083f565b61019e5f81565b6101bf6102a0366004610bef565b610867565b6102b86102b3366004610bbd565b61088b565b604051610134989796959493929190610dae565b61019e7f65d7a28e3265b37a6474929f336521b332c1681b933f6cb9f3376673440d862a81565b5f6001600160e01b03198216637965db0b60e01b148061032357506301ffc9a760e01b6001600160e01b03198316145b92915050565b5f8281526020819052604090206001015461034381610976565b61034d8383610980565b50505050565b5f61035c610a0f565b7fbbecb2568601cb27e6ced525237c463da94c4fb7a9b98ac79fd30fd56d8e1b5361038681610976565b6040516335313c2160e11b81526001600160a01b0389811660048301527f00000000000000000000000000000000000000000000000000000000000000001690636a627842906024016020604051808303815f875af11580156103eb573d5f803e3d5ffd5b505050506040513d601f19601f8201168201806040525081019061040f9190610e16565b9150604051806101000160405280896001600160a01b031681526020018881526020018761ffff1681526020018661ffff16815260200185858080601f0160208091040260200160405190810160405280939291908181526020018383808284375f92018290525093855250505060208083018690526001604080850182905267ffffffffffffffff4216606095860152878452600280845293819020865181546001600160a01b039091166001600160a01b0319909116178155928601519183019190915584015191810180549385015161ffff908116620100000263ffffffff19909516931692909217929092179055608082015160038201906105159082610ec4565b5060a0820151600482015560c08201516005909101805460e09093015167ffffffffffffffff166101000268ffffffffffffffff00199215159290921668ffffffffffffffffff19909316929092171790556040516001600160a01b0389169083907f3503f54c8c7aa6ed51960429a83bce9b89765dbac2fc689038dd62f5369b0d90906105ac908b908b908b908b908b90610f84565b60405180910390a3509695505050505050565b6001600160a01b03811633146105e85760405163334bd91960e11b815260040160405180910390fd5b6105f28282610a35565b505050565b7f65d7a28e3265b37a6474929f336521b332c1681b933f6cb9f3376673440d862a61062181610976565b610629610a9e565b50565b60408051610100810182525f808252602082018190529181018290526060808201839052608082015260a0810182905260c0810182905260e08101919091525f8281526002602081815260409283902083516101008101855281546001600160a01b031681526001820154928101929092529182015461ffff8082169483019490945262010000900490921660608301526003810180546080840191906106d290610e41565b80601f01602080910402602001604051908101604052809291908181526020018280546106fe90610e41565b80156107495780601f1061072057610100808354040283529160200191610749565b820191905f5260205f20905b81548152906001019060200180831161072c57829003601f168201915b50505091835250506004820154602082015260059091015460ff811615156040830152610100900467ffffffffffffffff1660609091015292915050565b7f65d7a28e3265b37a6474929f336521b332c1681b933f6cb9f3376673440d862a6107b181610976565b610629610af0565b5f7f00000000000000000000000000000000000000000000000000000000000000006001600160a01b03166375794a3c6040518163ffffffff1660e01b8152600401602060405180830381865afa158015610816573d5f803e3d5ffd5b505050506040513d601f19601f8201168201806040525081019061083a9190610e16565b905090565b5f918252602082815260408084206001600160a01b0393909316845291905290205460ff1690565b5f8281526020819052604090206001015461088181610976565b61034d8383610a35565b600260208190525f918252604090912080546001820154928201546003830180546001600160a01b03909316949361ffff808416946201000090940416929091906108d590610e41565b80601f016020809104026020016040519081016040528092919081815260200182805461090190610e41565b801561094c5780601f106109235761010080835404028352916020019161094c565b820191905f5260205f20905b81548152906001019060200180831161092f57829003601f168201915b50505050600483015460059093015491929160ff81169150610100900467ffffffffffffffff1688565b6106298133610b2b565b5f61098b838361083f565b610a08575f838152602081815260408083206001600160a01b03861684529091529020805460ff191660011790556109c03390565b6001600160a01b0316826001600160a01b0316847f2f8788117e7eff1d82e926ec794901d17c78024a50270940304540a733656f0d60405160405180910390a4506001610323565b505f610323565b60015460ff1615610a335760405163d93c066560e01b815260040160405180910390fd5b565b5f610a40838361083f565b15610a08575f838152602081815260408083206001600160a01b0386168085529252808320805460ff1916905551339286917ff6391f5c32d9c69d2a47ea670b442974b53935d1edc7fd64eb21e047a839171b9190a4506001610323565b610aa6610b6c565b6001805460ff191690557f5db9ee0a495bf2e6ff9c91a7834c1ba4fdd244a5e8aa4e537bd38aeae4b073aa335b6040516001600160a01b03909116815260200160405180910390a1565b610af8610a0f565b6001805460ff1916811790557f62e78cea01bee320cd4e420270b5ea74000d11b0c9f74754ebdbfc544b05a25833610ad3565b610b35828261083f565b610b685760405163e2517d3f60e01b81526001600160a01b03821660048201526024810183905260440160405180910390fd5b5050565b60015460ff16610a3357604051638dfc202b60e01b815260040160405180910390fd5b5f60208284031215610b9f575f80fd5b81356001600160e01b031981168114610bb6575f80fd5b9392505050565b5f60208284031215610bcd575f80fd5b5035919050565b80356001600160a01b0381168114610bea575f80fd5b919050565b5f8060408385031215610c00575f80fd5b82359150610c1060208401610bd4565b90509250929050565b803561ffff81168114610bea575f80fd5b5f805f805f8060a08789031215610c3f575f80fd5b610c4887610bd4565b955060208701359450610c5d60408801610c19565b9350610c6b60608801610c19565b9250608087013567ffffffffffffffff80821115610c87575f80fd5b818901915089601f830112610c9a575f80fd5b813581811115610ca8575f80fd5b8a6020828501011115610cb9575f80fd5b6020830194508093505050509295509295509295565b5f81518084525f5b81811015610cf357602081850181015186830182015201610cd7565b505f602082860101526020601f19601f83011685010191505092915050565b6020815260018060a01b0382511660208201526020820151604082015261ffff60408301511660608201525f6060830151610d53608084018261ffff169052565b5060808301516101008060a0850152610d70610120850183610ccf565b915060a085015160c085015260c0850151610d8f60e086018215159052565b5060e085015167ffffffffffffffff8116858301525090949350505050565b6001600160a01b03891681526020810188905261ffff878116604083015286166060820152610100608082018190525f90610deb83820188610ccf565b60a0840196909652505091151560c083015267ffffffffffffffff1660e09091015295945050505050565b5f60208284031215610e26575f80fd5b5051919050565b634e487b7160e01b5f52604160045260245ffd5b600181811c90821680610e5557607f821691505b602082108103610e7357634e487b7160e01b5f52602260045260245ffd5b50919050565b601f8211156105f257805f5260205f20601f840160051c81016020851015610e9e5750805b601f840160051c820191505b81811015610ebd575f8155600101610eaa565b5050505050565b815167ffffffffffffffff811115610ede57610ede610e2d565b610ef281610eec8454610e41565b84610e79565b602080601f831160018114610f25575f8415610f0e5750858301515b5f19600386901b1c1916600185901b178555610f7c565b5f85815260208120601f198616915b82811015610f5357888601518255948401946001909101908401610f34565b5085821015610f7057878501515f19600388901b60f8161c191681555b505060018460011b0185555b505050505050565b8581525f61ffff808716602084015280861660408401525060806060830152826080830152828460a08401375f60a0848401015260a0601f19601f8501168301019050969550505050505056fea264697066735822122040ca52b97b980f127dc98e309a41e81759adf26a81bcb8a90db19c9cf50afce164736f6c63430008180033",
  "linkReferences": {},
  "deployedLinkReferences": {},
  "immutableReferences": {
    "7673": [
      {
        "length": 32,
        "start": 322
      }
    ],
    "7676": [
      {
        "length": 32,
        "start": 473
      },
      {
        "length": 32,
        "start": 933
      },
      {
        "length": 32,
        "start": 1980
      }
    ]
  },
  "inputSourceName": "project/contracts/LoanManagerV2.sol",
  "buildInfoId": "solc-0_8_24-1d4e8ae7aa6980d777caf64232690d88f5ac02a4"
}